{
  "_format": "hh-sol-artifact-1",
  "contractName": "GODPanelsRegistry",
  "sourceName": "contracts/GODPanlesRegistry.sol",
  "abi": [
    {
      "inputs": [],
      "stateMutability": "nonpayable",
      "type": "constructor"
    },
    {
      "anonymous": false,
      "inputs": [
        {
          "indexed": false,
          "internalType": "address",
          "name": "_newAdminAddress",
          "type": "address"
        }
      ],
      "name": "AdminAdded",
      "type": "event"
    },
    {
      "anonymous": false,
      "inputs": [
        {
          "indexed": false,
          "internalType": "address",
          "name": "_adminAddress",
          "type": "address"
        }
      ],
      "name": "AdminRemoved",
      "type": "event"
    },
    {
      "anonymous": false,
      "inputs": [
        {
          "indexed": false,
          "internalType": "uint16",
          "name": "_token_id",
          "type": "uint16"
        },
        {
          "indexed": false,
          "internalType": "string",
          "name": "_dna",
          "type": "string"
        }
      ],
      "name": "DNA_updated",
      "type": "event"
    },
    {
      "anonymous": false,
      "inputs": [
        {
          "indexed": false,
          "internalType": "address",
          "name": "_oldOwnerAddress",
          "type": "address"
        },
        {
          "indexed": false,
          "internalType": "address",
          "name": "_newOwnerAddress",
          "type": "address"
        }
      ],
      "name": "OwnerChanged",
      "type": "event"
    },
    {
      "inputs": [
        {
          "internalType": "address",
          "name": "_newAdminAddress",
          "type": "address"
        }
      ],
      "name": "add_admin",
      "outputs": [],
      "stateMutability": "nonpayable",
      "type": "function"
    },
    {
      "inputs": [
        {
          "internalType": "address",
          "name": "",
          "type": "address"
        }
      ],
      "name": "admins",
      "outputs": [
        {
          "internalType": "bool",
          "name": "",
          "type": "bool"
        }
      ],
      "stateMutability": "view",
      "type": "function"
    },
    {
      "inputs": [
        {
          "internalType": "string",
          "name": "_dna",
          "type": "string"
        }
      ],
      "name": "check_DNA",
      "outputs": [
        {
          "internalType": "bool",
          "name": "",
          "type": "bool"
        }
      ],
      "stateMutability": "pure",
      "type": "function"
    },
    {
      "inputs": [
        {
          "internalType": "uint16",
          "name": "",
          "type": "uint16"
        }
      ],
      "name": "dnaMappings",
      "outputs": [
        {
          "internalType": "string",
          "name": "",
          "type": "string"
        }
      ],
      "stateMutability": "view",
      "type": "function"
    },
    {
      "inputs": [],
      "name": "owner",
      "outputs": [
        {
          "internalType": "address",
          "name": "",
          "type": "address"
        }
      ],
      "stateMutability": "view",
      "type": "function"
    },
    {
      "inputs": [
        {
          "internalType": "address",
          "name": "_adminAddress",
          "type": "address"
        }
      ],
      "name": "remove_admin",
      "outputs": [],
      "stateMutability": "nonpayable",
      "type": "function"
    },
    {
      "inputs": [
        {
          "internalType": "uint16",
          "name": "_tokenId",
          "type": "uint16"
        },
        {
          "internalType": "string",
          "name": "_dna",
          "type": "string"
        }
      ],
      "name": "save_DNA",
      "outputs": [],
      "stateMutability": "nonpayable",
      "type": "function"
    },
    {
      "inputs": [
        {
          "internalType": "address",
          "name": "_newOwner",
          "type": "address"
        }
      ],
      "name": "transfer_owner",
      "outputs": [],
      "stateMutability": "nonpayable",
      "type": "function"
    }
  ],
  "bytecode": "0x608060405234801561001057600080fd5b5033600160006101000a81548173ffffffffffffffffffffffffffffffffffffffff021916908373ffffffffffffffffffffffffffffffffffffffff1602179055506001600260003373ffffffffffffffffffffffffffffffffffffffff1673ffffffffffffffffffffffffffffffffffffffff16815260200190815260200160002060006101000a81548160ff0219169083151502179055506111cf806100b96000396000f3fe608060405234801561001057600080fd5b50600436106100885760003560e01c8063429b62e51161005b578063429b62e5146102045780638da5cb5b1461025e578063b8490f5314610292578063c294a3431461036357610088565b8063092b15101461008d57806313a070b714610138578063288960661461017c57806340be5df0146101c0575b600080fd5b6100bd600480360360208110156100a357600080fd5b81019080803561ffff16906020019092919050505061042c565b6040518080602001828103825283818151815260200191508051906020019080838360005b838110156100fd5780820151818401526020810190506100e2565b50505050905090810190601f16801561012a5780820380516001836020036101000a031916815260200191505b509250505060405180910390f35b61017a6004803603602081101561014e57600080fd5b81019080803573ffffffffffffffffffffffffffffffffffffffff1690602001909291905050506104dc565b005b6101be6004803603602081101561019257600080fd5b81019080803573ffffffffffffffffffffffffffffffffffffffff16906020019092919050505061062a565b005b610202600480360360208110156101d657600080fd5b81019080803573ffffffffffffffffffffffffffffffffffffffff169060200190929190505050610846565b005b6102466004803603602081101561021a57600080fd5b81019080803573ffffffffffffffffffffffffffffffffffffffff169060200190929190505050610a58565b60405180821515815260200191505060405180910390f35b610266610a78565b604051808273ffffffffffffffffffffffffffffffffffffffff16815260200191505060405180910390f35b61034b600480360360208110156102a857600080fd5b81019080803590602001906401000000008111156102c557600080fd5b8201836020820111156102d757600080fd5b803590602001918460018302840111640100000000831117156102f957600080fd5b91908080601f016020809104026020016040519081016040528093929190818152602001838380828437600081840152601f19601f820116905080830192505050505050509192919290505050610a9e565b60405180821515815260200191505060405180910390f35b61042a6004803603604081101561037957600080fd5b81019080803561ffff169060200190929190803590602001906401000000008111156103a457600080fd5b8201836020820111156103b657600080fd5b803590602001918460018302840111640100000000831117156103d857600080fd5b91908080601f016020809104026020016040519081016040528093929190818152602001838380828437600081840152601f19601f820116905080830192505050505050509192919290505050610c31565b005b60006020528060005260406000206000915090508054600181600116156101000203166002900480601f0160208091040260200160405190810160405280929190818152602001828054600181600116156101000203166002900480156104d45780601f106104a9576101008083540402835291602001916104d4565b820191906000526020600020905b8154815290600101906020018083116104b757829003601f168201915b505050505081565b600160009054906101000a900473ffffffffffffffffffffffffffffffffffffffff1673ffffffffffffffffffffffffffffffffffffffff163373ffffffffffffffffffffffffffffffffffffffff1614610582576040517f08c379a000000000000000000000000000000000000000000000000000000000815260040180806020018281038252602a81526020018061114f602a913960400191505060405180910390fd5b6001600260008373ffffffffffffffffffffffffffffffffffffffff1673ffffffffffffffffffffffffffffffffffffffff16815260200190815260200160002060006101000a81548160ff0219169083151502179055507f44d6d25963f097ad14f29f06854a01f575648a1ef82f30e562ccd3889717e33981604051808273ffffffffffffffffffffffffffffffffffffffff16815260200191505060405180910390a150565b600160009054906101000a900473ffffffffffffffffffffffffffffffffffffffff1673ffffffffffffffffffffffffffffffffffffffff163373ffffffffffffffffffffffffffffffffffffffff16146106d0576040517f08c379a00000000000000000000000000000000000000000000000000000000081526004018080602001828103825260328152602001806110c96032913960400191505060405180910390fd5b7fb532073b38c83145e3e5135377a08bf9aab55bc0fd7c1179cd4fb995d2a5159c600160009054906101000a900473ffffffffffffffffffffffffffffffffffffffff1682604051808373ffffffffffffffffffffffffffffffffffffffff1681526020018273ffffffffffffffffffffffffffffffffffffffff1681526020019250505060405180910390a17f44d6d25963f097ad14f29f06854a01f575648a1ef82f30e562ccd3889717e33981604051808273ffffffffffffffffffffffffffffffffffffffff16815260200191505060405180910390a16001600260008373ffffffffffffffffffffffffffffffffffffffff1673ffffffffffffffffffffffffffffffffffffffff16815260200190815260200160002060006101000a81548160ff02191690831515021790555080600160006101000a81548173ffffffffffffffffffffffffffffffffffffffff021916908373ffffffffffffffffffffffffffffffffffffffff16021790555050565b600160009054906101000a900473ffffffffffffffffffffffffffffffffffffffff1673ffffffffffffffffffffffffffffffffffffffff163373ffffffffffffffffffffffffffffffffffffffff16146108ec576040517f08c379a000000000000000000000000000000000000000000000000000000000815260040180806020018281038252602d815260200180611122602d913960400191505060405180910390fd5b600160009054906101000a900473ffffffffffffffffffffffffffffffffffffffff1673ffffffffffffffffffffffffffffffffffffffff168173ffffffffffffffffffffffffffffffffffffffff1614156109b0576040517f08c379a000000000000000000000000000000000000000000000000000000000815260040180806020018281038252601f8152602001807f43616e74207265776f6b652061646d696e20726f6c65206f66206f776e65720081525060200191505060405180910390fd5b6000600260008373ffffffffffffffffffffffffffffffffffffffff1673ffffffffffffffffffffffffffffffffffffffff16815260200190815260200160002060006101000a81548160ff0219169083151502179055507fa3b62bc36326052d97ea62d63c3d60308ed4c3ea8ac079dd8499f1e9c4f80c0f81604051808273ffffffffffffffffffffffffffffffffffffffff16815260200191505060405180910390a150565b60026020528060005260406000206000915054906101000a900460ff1681565b600160009054906101000a900473ffffffffffffffffffffffffffffffffffffffff1681565b600060608290506004815114610ab8576000915050610c2c565b60005b8151811015610c25576000828281518110610ad257fe5b602001015160f81c60f81b9050603060f81b817effffffffffffffffffffffffffffffffffffffffffffffffffffffffffffff191610158015610b3b5750603960f81b817effffffffffffffffffffffffffffffffffffffffffffffffffffffffffffff191611155b158015610ba15750604160f81b817effffffffffffffffffffffffffffffffffffffffffffffffffffffffffffff191610158015610b9f5750605a60f81b817effffffffffffffffffffffffffffffffffffffffffffffffffffffffffffff191611155b155b8015610c065750606160f81b817effffffffffffffffffffffffffffffffffffffffffffffffffffffffffffff191610158015610c045750607a60f81b817effffffffffffffffffffffffffffffffffffffffffffffffffffffffffffff191611155b155b15610c175760009350505050610c2c565b508080600101915050610abb565b5060019150505b919050565b600260003373ffffffffffffffffffffffffffffffffffffffff1673ffffffffffffffffffffffffffffffffffffffff16815260200190815260200160002060009054906101000a900460ff16610cd3576040517f08c379a00000000000000000000000000000000000000000000000000000000081526004018080602001828103825260278152602001806110fb6027913960400191505060405180910390fd5b604051602001806000019050604051602081830303815290604052805190602001206000808461ffff1661ffff1681526020019081526020016000206040516020018082805460018160011615610100020316600290048015610d6d5780601f10610d4b576101008083540402835291820191610d6d565b820191906000526020600020905b815481529060010190602001808311610d59575b50509150506040516020818303038152906040528051906020012014610dde576040517f08c379a00000000000000000000000000000000000000000000000000000000081526004018080602001828103825260218152602001806111796021913960400191505060405180910390fd5b8161ffff166103541015610e5a576040517f08c379a000000000000000000000000000000000000000000000000000000000815260040180806020018281038252600f8152602001807f496e76616c696420746f6b656e4964000000000000000000000000000000000081525060200191505060405180910390fd5b60018261ffff161015610ed5576040517f08c379a000000000000000000000000000000000000000000000000000000000815260040180806020018281038252600f8152602001807f496e76616c696420746f6b656e4964000000000000000000000000000000000081525060200191505060405180910390fd5b610ede81610a9e565b610f50576040517f08c379a000000000000000000000000000000000000000000000000000000000815260040180806020018281038252600b8152602001807f496e76616c696420444e4100000000000000000000000000000000000000000081525060200191505060405180910390fd5b806000808461ffff1661ffff1681526020019081526020016000209080519060200190610f7e92919061102b565b507f273fe2ae1e8d1c38c9eeefcc50d647522260f324060d408b99c3eecfb026bc868282604051808361ffff16815260200180602001828103825283818151815260200191508051906020019080838360005b83811015610fec578082015181840152602081019050610fd1565b50505050905090810190601f1680156110195780820380516001836020036101000a031916815260200191505b50935050505060405180910390a15050565b828054600181600116156101000203166002900490600052602060002090601f016020900481019282601f1061106c57805160ff191683800117855561109a565b8280016001018555821561109a579182015b8281111561109957825182559160200191906001019061107e565b5b5090506110a791906110ab565b5090565b5b808211156110c45760008160009055506001016110ac565b509056fe596f7520646f6e2774206861766520617574686f72697a6174696f6e20746f207472616e73666572206f776e657273686970596f7520646f6e2774206861766520617574686f72697a6174696f6e20746f2073657420444e41596f7520646f6e2774206861766520617574686f72697a6174696f6e20746f2072656d6f76652061646d696e73596f7520646f6e2774206861766520617574686f72697a6174696f6e20746f206164642061646d696e73444e4120616c72656164792073657420666f72207468697320746f6b656e204944a26469706673582212200597137255b083b96c69d664b01d42fe249fe70cde3b01e989f8f1142e06ec8664736f6c63430007030033",
  "linkReferences": {},
  "deployedLinkReferences": {}
}